{
  "_format": "hh-sol-artifact-1",
  "contractName": "EtherlinkGenerator",
  "sourceName": "contracts/EtherlinkGenerator.sol",
  "abi": [
    {
      "inputs": [],
      "stateMutability": "nonpayable",
      "type": "constructor"
    },
    {
      "inputs": [
        {
          "internalType": "address",
          "name": "sender",
          "type": "address"
        },
        {
          "internalType": "uint256",
          "name": "tokenId",
          "type": "uint256"
        },
        {
          "internalType": "address",
          "name": "owner",
          "type": "address"
        }
      ],
      "name": "ERC721IncorrectOwner",
      "type": "error"
    },
    {
      "inputs": [
        {
          "internalType": "address",
          "name": "operator",
          "type": "address"
        },
        {
          "internalType": "uint256",
          "name": "tokenId",
          "type": "uint256"
        }
      ],
      "name": "ERC721InsufficientApproval",
      "type": "error"
    },
    {
      "inputs": [
        {
          "internalType": "address",
          "name": "approver",
          "type": "address"
        }
      ],
      "name": "ERC721InvalidApprover",
      "type": "error"
    },
    {
      "inputs": [
        {
          "internalType": "address",
          "name": "operator",
          "type": "address"
        }
      ],
      "name": "ERC721InvalidOperator",
      "type": "error"
    },
    {
      "inputs": [
        {
          "internalType": "address",
          "name": "owner",
          "type": "address"
        }
      ],
      "name": "ERC721InvalidOwner",
      "type": "error"
    },
    {
      "inputs": [
        {
          "internalType": "address",
          "name": "receiver",
          "type": "address"
        }
      ],
      "name": "ERC721InvalidReceiver",
      "type": "error"
    },
    {
      "inputs": [
        {
          "internalType": "address",
          "name": "sender",
          "type": "address"
        }
      ],
      "name": "ERC721InvalidSender",
      "type": "error"
    },
    {
      "inputs": [
        {
          "internalType": "uint256",
          "name": "tokenId",
          "type": "uint256"
        }
      ],
      "name": "ERC721NonexistentToken",
      "type": "error"
    },
    {
      "anonymous": false,
      "inputs": [
        {
          "indexed": true,
          "internalType": "address",
          "name": "owner",
          "type": "address"
        },
        {
          "indexed": true,
          "internalType": "address",
          "name": "approved",
          "type": "address"
        },
        {
          "indexed": true,
          "internalType": "uint256",
          "name": "tokenId",
          "type": "uint256"
        }
      ],
      "name": "Approval",
      "type": "event"
    },
    {
      "anonymous": false,
      "inputs": [
        {
          "indexed": true,
          "internalType": "address",
          "name": "owner",
          "type": "address"
        },
        {
          "indexed": true,
          "internalType": "address",
          "name": "operator",
          "type": "address"
        },
        {
          "indexed": false,
          "internalType": "bool",
          "name": "approved",
          "type": "bool"
        }
      ],
      "name": "ApprovalForAll",
      "type": "event"
    },
    {
      "anonymous": false,
      "inputs": [
        {
          "indexed": true,
          "internalType": "address",
          "name": "from",
          "type": "address"
        },
        {
          "indexed": true,
          "internalType": "address",
          "name": "to",
          "type": "address"
        },
        {
          "indexed": true,
          "internalType": "uint256",
          "name": "tokenId",
          "type": "uint256"
        }
      ],
      "name": "Transfer",
      "type": "event"
    },
    {
      "inputs": [
        {
          "internalType": "address",
          "name": "to",
          "type": "address"
        },
        {
          "internalType": "uint256",
          "name": "tokenId",
          "type": "uint256"
        }
      ],
      "name": "approve",
      "outputs": [],
      "stateMutability": "nonpayable",
      "type": "function"
    },
    {
      "inputs": [
        {
          "internalType": "address",
          "name": "owner",
          "type": "address"
        }
      ],
      "name": "balanceOf",
      "outputs": [
        {
          "internalType": "uint256",
          "name": "",
          "type": "uint256"
        }
      ],
      "stateMutability": "view",
      "type": "function"
    },
    {
      "inputs": [
        {
          "internalType": "uint256",
          "name": "tokenId",
          "type": "uint256"
        }
      ],
      "name": "getApproved",
      "outputs": [
        {
          "internalType": "address",
          "name": "",
          "type": "address"
        }
      ],
      "stateMutability": "view",
      "type": "function"
    },
    {
      "inputs": [
        {
          "internalType": "address",
          "name": "owner",
          "type": "address"
        },
        {
          "internalType": "address",
          "name": "operator",
          "type": "address"
        }
      ],
      "name": "isApprovedForAll",
      "outputs": [
        {
          "internalType": "bool",
          "name": "",
          "type": "bool"
        }
      ],
      "stateMutability": "view",
      "type": "function"
    },
    {
      "inputs": [],
      "name": "name",
      "outputs": [
        {
          "internalType": "string",
          "name": "",
          "type": "string"
        }
      ],
      "stateMutability": "view",
      "type": "function"
    },
    {
      "inputs": [
        {
          "internalType": "uint256",
          "name": "tokenId",
          "type": "uint256"
        }
      ],
      "name": "ownerOf",
      "outputs": [
        {
          "internalType": "address",
          "name": "",
          "type": "address"
        }
      ],
      "stateMutability": "view",
      "type": "function"
    },
    {
      "inputs": [
        {
          "internalType": "string",
          "name": "_logoColor",
          "type": "string"
        },
        {
          "internalType": "string",
          "name": "_backgroundColor",
          "type": "string"
        }
      ],
      "name": "safeMint",
      "outputs": [
        {
          "internalType": "uint256",
          "name": "",
          "type": "uint256"
        }
      ],
      "stateMutability": "nonpayable",
      "type": "function"
    },
    {
      "inputs": [
        {
          "internalType": "address",
          "name": "from",
          "type": "address"
        },
        {
          "internalType": "address",
          "name": "to",
          "type": "address"
        },
        {
          "internalType": "uint256",
          "name": "tokenId",
          "type": "uint256"
        }
      ],
      "name": "safeTransferFrom",
      "outputs": [],
      "stateMutability": "nonpayable",
      "type": "function"
    },
    {
      "inputs": [
        {
          "internalType": "address",
          "name": "from",
          "type": "address"
        },
        {
          "internalType": "address",
          "name": "to",
          "type": "address"
        },
        {
          "internalType": "uint256",
          "name": "tokenId",
          "type": "uint256"
        },
        {
          "internalType": "bytes",
          "name": "data",
          "type": "bytes"
        }
      ],
      "name": "safeTransferFrom",
      "outputs": [],
      "stateMutability": "nonpayable",
      "type": "function"
    },
    {
      "inputs": [
        {
          "internalType": "address",
          "name": "operator",
          "type": "address"
        },
        {
          "internalType": "bool",
          "name": "approved",
          "type": "bool"
        }
      ],
      "name": "setApprovalForAll",
      "outputs": [],
      "stateMutability": "nonpayable",
      "type": "function"
    },
    {
      "inputs": [
        {
          "internalType": "bytes4",
          "name": "interfaceId",
          "type": "bytes4"
        }
      ],
      "name": "supportsInterface",
      "outputs": [
        {
          "internalType": "bool",
          "name": "",
          "type": "bool"
        }
      ],
      "stateMutability": "view",
      "type": "function"
    },
    {
      "inputs": [],
      "name": "symbol",
      "outputs": [
        {
          "internalType": "string",
          "name": "",
          "type": "string"
        }
      ],
      "stateMutability": "view",
      "type": "function"
    },
    {
      "inputs": [
        {
          "internalType": "uint256",
          "name": "",
          "type": "uint256"
        }
      ],
      "name": "tokenIdToColors",
      "outputs": [
        {
          "internalType": "string",
          "name": "logo",
          "type": "string"
        },
        {
          "internalType": "string",
          "name": "background",
          "type": "string"
        }
      ],
      "stateMutability": "view",
      "type": "function"
    },
    {
      "inputs": [
        {
          "internalType": "uint256",
          "name": "tokenId",
          "type": "uint256"
        }
      ],
      "name": "tokenURI",
      "outputs": [
        {
          "internalType": "string",
          "name": "",
          "type": "string"
        }
      ],
      "stateMutability": "view",
      "type": "function"
    },
    {
      "inputs": [],
      "name": "totalSupply",
      "outputs": [
        {
          "internalType": "uint256",
          "name": "",
          "type": "uint256"
        }
      ],
      "stateMutability": "view",
      "type": "function"
    },
    {
      "inputs": [
        {
          "internalType": "address",
          "name": "from",
          "type": "address"
        },
        {
          "internalType": "address",
          "name": "to",
          "type": "address"
        },
        {
          "internalType": "uint256",
          "name": "tokenId",
          "type": "uint256"
        }
      ],
      "name": "transferFrom",
      "outputs": [],
      "stateMutability": "nonpayable",
      "type": "function"
    }
  ],
  "bytecode": "0x60806040523480156200001157600080fd5b506040518060400160405280601281526020017f45746865726c696e6b47656e657261746f7200000000000000000000000000008152506040518060400160405280600481526020017f455448470000000000000000000000000000000000000000000000000000000081525081600090816200008f919062000324565b508060019081620000a1919062000324565b5050506200040b565b600081519050919050565b7f4e487b7100000000000000000000000000000000000000000000000000000000600052604160045260246000fd5b7f4e487b7100000000000000000000000000000000000000000000000000000000600052602260045260246000fd5b600060028204905060018216806200012c57607f821691505b602082108103620001425762000141620000e4565b5b50919050565b60008190508160005260206000209050919050565b60006020601f8301049050919050565b600082821b905092915050565b600060088302620001ac7fffffffffffffffffffffffffffffffffffffffffffffffffffffffffffffffff826200016d565b620001b886836200016d565b95508019841693508086168417925050509392505050565b6000819050919050565b6000819050919050565b600062000205620001ff620001f984620001d0565b620001da565b620001d0565b9050919050565b6000819050919050565b6200022183620001e4565b6200023962000230826200020c565b8484546200017a565b825550505050565b600090565b6200025062000241565b6200025d81848462000216565b505050565b5b8181101562000285576200027960008262000246565b60018101905062000263565b5050565b601f821115620002d4576200029e8162000148565b620002a9846200015d565b81016020851015620002b9578190505b620002d1620002c8856200015d565b83018262000262565b50505b505050565b600082821c905092915050565b6000620002f960001984600802620002d9565b1980831691505092915050565b6000620003148383620002e6565b9150826002028217905092915050565b6200032f82620000aa565b67ffffffffffffffff8111156200034b576200034a620000b5565b5b62000357825462000113565b6200036482828562000289565b600060209050601f8311600181146200039c576000841562000387578287015190505b62000393858262000306565b86555062000403565b601f198416620003ac8662000148565b60005b82811015620003d657848901518255600182019150602085019450602081019050620003af565b86831015620003f65784890151620003f2601f891682620002e6565b8355505b6001600288020188555050505b505050505050565b61362f806200041b6000396000f3fe608060405234801561001057600080fd5b50600436106101005760003560e01c80634fa1f7ae11610097578063a22cb46511610066578063a22cb465146102d4578063b88d4fde146102f0578063c87b56dd1461030c578063e985e9c51461033c57610100565b80634fa1f7ae146102265780636352211e1461025657806370a082311461028657806395d89b41146102b657610100565b806318160ddd116100d357806318160ddd1461019f57806323b872dd146101bd5780632afeda4c146101d957806342842e0e1461020a57610100565b806301ffc9a71461010557806306fdde0314610135578063081812fc14610153578063095ea7b314610183575b600080fd5b61011f600480360381019061011a9190611a26565b61036c565b60405161012c9190611a6e565b60405180910390f35b61013d61044e565b60405161014a9190611b19565b60405180910390f35b61016d60048036038101906101689190611b71565b6104e0565b60405161017a9190611bdf565b60405180910390f35b61019d60048036038101906101989190611c26565b6104fc565b005b6101a7610512565b6040516101b49190611c75565b60405180910390f35b6101d760048036038101906101d29190611c90565b61051c565b005b6101f360048036038101906101ee9190611b71565b61061e565b604051610201929190611ce3565b60405180910390f35b610224600480360381019061021f9190611c90565b610752565b005b610240600480360381019061023b9190611d7f565b610772565b60405161024d9190611c75565b60405180910390f35b610270600480360381019061026b9190611b71565b6107f0565b60405161027d9190611bdf565b60405180910390f35b6102a0600480360381019061029b9190611e00565b610802565b6040516102ad9190611c75565b60405180910390f35b6102be6108bc565b6040516102cb9190611b19565b60405180910390f35b6102ee60048036038101906102e99190611e59565b61094e565b005b61030a60048036038101906103059190611fc9565b610964565b005b61032660048036038101906103219190611b71565b610981565b6040516103339190611b19565b60405180910390f35b6103566004803603810190610351919061204c565b610a01565b6040516103639190611a6e565b60405180910390f35b60007f80ac58cd000000000000000000000000000000000000000000000000000000007bffffffffffffffffffffffffffffffffffffffffffffffffffffffff1916827bffffffffffffffffffffffffffffffffffffffffffffffffffffffff1916148061043757507f5b5e139f000000000000000000000000000000000000000000000000000000007bffffffffffffffffffffffffffffffffffffffffffffffffffffffff1916827bffffffffffffffffffffffffffffffffffffffffffffffffffffffff1916145b80610447575061044682610a95565b5b9050919050565b60606000805461045d906120bb565b80601f0160208091040260200160405190810160405280929190818152602001828054610489906120bb565b80156104d65780601f106104ab576101008083540402835291602001916104d6565b820191906000526020600020905b8154815290600101906020018083116104b957829003601f168201915b5050505050905090565b60006104eb82610aff565b506104f582610b87565b9050919050565b61050e8282610509610bc4565b610bcc565b5050565b6000600654905090565b600073ffffffffffffffffffffffffffffffffffffffff168273ffffffffffffffffffffffffffffffffffffffff160361058e5760006040517f64a0ae920000000000000000000000000000000000000000000000000000000081526004016105859190611bdf565b60405180910390fd5b60006105a2838361059d610bc4565b610bde565b90508373ffffffffffffffffffffffffffffffffffffffff168173ffffffffffffffffffffffffffffffffffffffff1614610618578382826040517f64283d7b00000000000000000000000000000000000000000000000000000000815260040161060f939291906120ec565b60405180910390fd5b50505050565b6007602052806000526040600020600091509050806000018054610641906120bb565b80601f016020809104026020016040519081016040528092919081815260200182805461066d906120bb565b80156106ba5780601f1061068f576101008083540402835291602001916106ba565b820191906000526020600020905b81548152906001019060200180831161069d57829003601f168201915b5050505050908060010180546106cf906120bb565b80601f01602080910402602001604051908101604052809291908181526020018280546106fb906120bb565b80156107485780601f1061071d57610100808354040283529160200191610748565b820191906000526020600020905b81548152906001019060200180831161072b57829003601f168201915b5050505050905082565b61076d83838360405180602001604052806000815250610964565b505050565b6000806006600081548092919061078890612152565b9190505590506107983382610df8565b85856007600084815260200190815260200160002060000191826107bd929190612351565b5083836007600084815260200190815260200160002060010191826107e3929190612351565b5080915050949350505050565b60006107fb82610aff565b9050919050565b60008073ffffffffffffffffffffffffffffffffffffffff168273ffffffffffffffffffffffffffffffffffffffff16036108755760006040517f89c62b6400000000000000000000000000000000000000000000000000000000815260040161086c9190611bdf565b60405180910390fd5b600360008373ffffffffffffffffffffffffffffffffffffffff1673ffffffffffffffffffffffffffffffffffffffff168152602001908152602001600020549050919050565b6060600180546108cb906120bb565b80601f01602080910402602001604051908101604052809291908181526020018280546108f7906120bb565b80156109445780601f1061091957610100808354040283529160200191610944565b820191906000526020600020905b81548152906001019060200180831161092757829003601f168201915b5050505050905090565b610960610959610bc4565b8383610e16565b5050565b61096f84848461051c565b61097b84848484610f85565b50505050565b6060600060076000848152602001908152602001600020905060006109a58461113c565b6109ae8361120a565b6040516020016109bf929190612671565b60405160208183030381529060405290506109d981611268565b6040516020016109e99190612723565b60405160208183030381529060405292505050919050565b6000600560008473ffffffffffffffffffffffffffffffffffffffff1673ffffffffffffffffffffffffffffffffffffffff16815260200190815260200160002060008373ffffffffffffffffffffffffffffffffffffffff1673ffffffffffffffffffffffffffffffffffffffff16815260200190815260200160002060009054906101000a900460ff16905092915050565b60007f01ffc9a7000000000000000000000000000000000000000000000000000000007bffffffffffffffffffffffffffffffffffffffffffffffffffffffff1916827bffffffffffffffffffffffffffffffffffffffffffffffffffffffff1916149050919050565b600080610b0b836113cb565b9050600073ffffffffffffffffffffffffffffffffffffffff168173ffffffffffffffffffffffffffffffffffffffff1603610b7e57826040517f7e273289000000000000000000000000000000000000000000000000000000008152600401610b759190611c75565b60405180910390fd5b80915050919050565b60006004600083815260200190815260200160002060009054906101000a900473ffffffffffffffffffffffffffffffffffffffff169050919050565b600033905090565b610bd98383836001611408565b505050565b600080610bea846113cb565b9050600073ffffffffffffffffffffffffffffffffffffffff168373ffffffffffffffffffffffffffffffffffffffff1614610c2c57610c2b8184866115cd565b5b600073ffffffffffffffffffffffffffffffffffffffff168173ffffffffffffffffffffffffffffffffffffffff1614610cbd57610c6e600085600080611408565b6001600360008373ffffffffffffffffffffffffffffffffffffffff1673ffffffffffffffffffffffffffffffffffffffff168152602001908152602001600020600082825403925050819055505b600073ffffffffffffffffffffffffffffffffffffffff168573ffffffffffffffffffffffffffffffffffffffff1614610d40576001600360008773ffffffffffffffffffffffffffffffffffffffff1673ffffffffffffffffffffffffffffffffffffffff168152602001908152602001600020600082825401925050819055505b846002600086815260200190815260200160002060006101000a81548173ffffffffffffffffffffffffffffffffffffffff021916908373ffffffffffffffffffffffffffffffffffffffff160217905550838573ffffffffffffffffffffffffffffffffffffffff168273ffffffffffffffffffffffffffffffffffffffff167fddf252ad1be2c89b69c2b068fc378daa952ba7f163c4a11628f55a4df523b3ef60405160405180910390a4809150509392505050565b610e12828260405180602001604052806000815250611691565b5050565b600073ffffffffffffffffffffffffffffffffffffffff168273ffffffffffffffffffffffffffffffffffffffff1603610e8757816040517f5b08ba18000000000000000000000000000000000000000000000000000000008152600401610e7e9190611bdf565b60405180910390fd5b80600560008573ffffffffffffffffffffffffffffffffffffffff1673ffffffffffffffffffffffffffffffffffffffff16815260200190815260200160002060008473ffffffffffffffffffffffffffffffffffffffff1673ffffffffffffffffffffffffffffffffffffffff16815260200190815260200160002060006101000a81548160ff0219169083151502179055508173ffffffffffffffffffffffffffffffffffffffff168373ffffffffffffffffffffffffffffffffffffffff167f17307eab39ab6107e8899845ad3d59bd9653f200f220920489ca2b5937696c3183604051610f789190611a6e565b60405180910390a3505050565b60008373ffffffffffffffffffffffffffffffffffffffff163b1115611136578273ffffffffffffffffffffffffffffffffffffffff1663150b7a02610fc9610bc4565b8685856040518563ffffffff1660e01b8152600401610feb949392919061279a565b6020604051808303816000875af192505050801561102757506040513d601f19601f8201168201806040525081019061102491906127fb565b60015b6110ab573d8060008114611057576040519150601f19603f3d011682016040523d82523d6000602084013e61105c565b606091505b5060008151036110a357836040517f64a0ae9200000000000000000000000000000000000000000000000000000000815260040161109a9190611bdf565b60405180910390fd5b805181602001fd5b63150b7a0260e01b7bffffffffffffffffffffffffffffffffffffffffffffffffffffffff1916817bffffffffffffffffffffffffffffffffffffffffffffffffffffffff19161461113457836040517f64a0ae9200000000000000000000000000000000000000000000000000000000815260040161112b9190611bdf565b60405180910390fd5b505b50505050565b60606000600161114b846116ad565b01905060008167ffffffffffffffff81111561116a57611169611e9e565b5b6040519080825280601f01601f19166020018201604052801561119c5781602001600182028036833780820191505090505b509050600082602001820190505b6001156111ff578080600190039150507f3031323334353637383961626364656600000000000000000000000000000000600a86061a8153600a85816111f3576111f2612828565b5b049450600085036111aa575b819350505050919050565b6060600082600001836001016040516020016112279291906133ff565b604051602081830303815290604052905061124181611268565b60405160200161125191906134c7565b604051602081830303815290604052915050919050565b6060600082510361128a576040518060200160405280600081525090506113c6565b60006040518060600160405280604081526020016135ba60409139905060006003600285516112b991906134e9565b6112c3919061351d565b60046112cf919061354e565b67ffffffffffffffff8111156112e8576112e7611e9e565b5b6040519080825280601f01601f19166020018201604052801561131a5781602001600182028036833780820191505090505b509050600182016020820185865187015b80821015611386576003820191508151603f8160121c168501518453600184019350603f81600c1c168501518453600184019350603f8160061c168501518453600184019350603f811685015184536001840193505061132b565b50506003865106600181146113a257600281146113b5576113bd565b603d6001830353603d60028303536113bd565b603d60018303535b50505080925050505b919050565b60006002600083815260200190815260200160002060009054906101000a900473ffffffffffffffffffffffffffffffffffffffff169050919050565b80806114415750600073ffffffffffffffffffffffffffffffffffffffff168273ffffffffffffffffffffffffffffffffffffffff1614155b1561157557600061145184610aff565b9050600073ffffffffffffffffffffffffffffffffffffffff168373ffffffffffffffffffffffffffffffffffffffff16141580156114bc57508273ffffffffffffffffffffffffffffffffffffffff168173ffffffffffffffffffffffffffffffffffffffff1614155b80156114cf57506114cd8184610a01565b155b1561151157826040517fa9fbf51f0000000000000000000000000000000000000000000000000000000081526004016115089190611bdf565b60405180910390fd5b811561157357838573ffffffffffffffffffffffffffffffffffffffff168273ffffffffffffffffffffffffffffffffffffffff167f8c5be1e5ebec7d5bd14f71427d1e84f3dd0314c0f7b2291e5b200ac8c7c3b92560405160405180910390a45b505b836004600085815260200190815260200160002060006101000a81548173ffffffffffffffffffffffffffffffffffffffff021916908373ffffffffffffffffffffffffffffffffffffffff16021790555050505050565b6115d8838383611800565b61168c57600073ffffffffffffffffffffffffffffffffffffffff168373ffffffffffffffffffffffffffffffffffffffff160361164d57806040517f7e2732890000000000000000000000000000000000000000000000000000000081526004016116449190611c75565b60405180910390fd5b81816040517f177e802f000000000000000000000000000000000000000000000000000000008152600401611683929190613590565b60405180910390fd5b505050565b61169b83836118c1565b6116a86000848484610f85565b505050565b600080600090507a184f03e93ff9f4daa797ed6e38ed64bf6a1f010000000000000000831061170b577a184f03e93ff9f4daa797ed6e38ed64bf6a1f010000000000000000838161170157611700612828565b5b0492506040810190505b6d04ee2d6d415b85acef81000000008310611748576d04ee2d6d415b85acef8100000000838161173e5761173d612828565b5b0492506020810190505b662386f26fc10000831061177757662386f26fc10000838161176d5761176c612828565b5b0492506010810190505b6305f5e10083106117a0576305f5e100838161179657611795612828565b5b0492506008810190505b61271083106117c55761271083816117bb576117ba612828565b5b0492506004810190505b606483106117e857606483816117de576117dd612828565b5b0492506002810190505b600a83106117f7576001810190505b80915050919050565b60008073ffffffffffffffffffffffffffffffffffffffff168373ffffffffffffffffffffffffffffffffffffffff16141580156118b857508273ffffffffffffffffffffffffffffffffffffffff168473ffffffffffffffffffffffffffffffffffffffff16148061187957506118788484610a01565b5b806118b757508273ffffffffffffffffffffffffffffffffffffffff1661189f83610b87565b73ffffffffffffffffffffffffffffffffffffffff16145b5b90509392505050565b600073ffffffffffffffffffffffffffffffffffffffff168273ffffffffffffffffffffffffffffffffffffffff16036119335760006040517f64a0ae9200000000000000000000000000000000000000000000000000000000815260040161192a9190611bdf565b60405180910390fd5b600061194183836000610bde565b9050600073ffffffffffffffffffffffffffffffffffffffff168173ffffffffffffffffffffffffffffffffffffffff16146119b55760006040517f73c6ac6e0000000000000000000000000000000000000000000000000000000081526004016119ac9190611bdf565b60405180910390fd5b505050565b6000604051905090565b600080fd5b600080fd5b60007fffffffff0000000000000000000000000000000000000000000000000000000082169050919050565b611a03816119ce565b8114611a0e57600080fd5b50565b600081359050611a20816119fa565b92915050565b600060208284031215611a3c57611a3b6119c4565b5b6000611a4a84828501611a11565b91505092915050565b60008115159050919050565b611a6881611a53565b82525050565b6000602082019050611a836000830184611a5f565b92915050565b600081519050919050565b600082825260208201905092915050565b60005b83811015611ac3578082015181840152602081019050611aa8565b60008484015250505050565b6000601f19601f8301169050919050565b6000611aeb82611a89565b611af58185611a94565b9350611b05818560208601611aa5565b611b0e81611acf565b840191505092915050565b60006020820190508181036000830152611b338184611ae0565b905092915050565b6000819050919050565b611b4e81611b3b565b8114611b5957600080fd5b50565b600081359050611b6b81611b45565b92915050565b600060208284031215611b8757611b866119c4565b5b6000611b9584828501611b5c565b91505092915050565b600073ffffffffffffffffffffffffffffffffffffffff82169050919050565b6000611bc982611b9e565b9050919050565b611bd981611bbe565b82525050565b6000602082019050611bf46000830184611bd0565b92915050565b611c0381611bbe565b8114611c0e57600080fd5b50565b600081359050611c2081611bfa565b92915050565b60008060408385031215611c3d57611c3c6119c4565b5b6000611c4b85828601611c11565b9250506020611c5c85828601611b5c565b9150509250929050565b611c6f81611b3b565b82525050565b6000602082019050611c8a6000830184611c66565b92915050565b600080600060608486031215611ca957611ca86119c4565b5b6000611cb786828701611c11565b9350506020611cc886828701611c11565b9250506040611cd986828701611b5c565b9150509250925092565b60006040820190508181036000830152611cfd8185611ae0565b90508181036020830152611d118184611ae0565b90509392505050565b600080fd5b600080fd5b600080fd5b60008083601f840112611d3f57611d3e611d1a565b5b8235905067ffffffffffffffff811115611d5c57611d5b611d1f565b5b602083019150836001820283011115611d7857611d77611d24565b5b9250929050565b60008060008060408587031215611d9957611d986119c4565b5b600085013567ffffffffffffffff811115611db757611db66119c9565b5b611dc387828801611d29565b9450945050602085013567ffffffffffffffff811115611de657611de56119c9565b5b611df287828801611d29565b925092505092959194509250565b600060208284031215611e1657611e156119c4565b5b6000611e2484828501611c11565b91505092915050565b611e3681611a53565b8114611e4157600080fd5b50565b600081359050611e5381611e2d565b92915050565b60008060408385031215611e7057611e6f6119c4565b5b6000611e7e85828601611c11565b9250506020611e8f85828601611e44565b9150509250929050565b600080fd5b7f4e487b7100000000000000000000000000000000000000000000000000000000600052604160045260246000fd5b611ed682611acf565b810181811067ffffffffffffffff82111715611ef557611ef4611e9e565b5b80604052505050565b6000611f086119ba565b9050611f148282611ecd565b919050565b600067ffffffffffffffff821115611f3457611f33611e9e565b5b611f3d82611acf565b9050602081019050919050565b82818337600083830152505050565b6000611f6c611f6784611f19565b611efe565b905082815260208101848484011115611f8857611f87611e99565b5b611f93848285611f4a565b509392505050565b600082601f830112611fb057611faf611d1a565b5b8135611fc0848260208601611f59565b91505092915050565b60008060008060808587031215611fe357611fe26119c4565b5b6000611ff187828801611c11565b945050602061200287828801611c11565b935050604061201387828801611b5c565b925050606085013567ffffffffffffffff811115612034576120336119c9565b5b61204087828801611f9b565b91505092959194509250565b60008060408385031215612063576120626119c4565b5b600061207185828601611c11565b925050602061208285828601611c11565b9150509250929050565b7f4e487b7100000000000000000000000000000000000000000000000000000000600052602260045260246000fd5b600060028204905060018216806120d357607f821691505b6020821081036120e6576120e561208c565b5b50919050565b60006060820190506121016000830186611bd0565b61210e6020830185611c66565b61211b6040830184611bd0565b949350505050565b7f4e487b7100000000000000000000000000000000000000000000000000000000600052601160045260246000fd5b600061215d82611b3b565b91507fffffffffffffffffffffffffffffffffffffffffffffffffffffffffffffffff820361218f5761218e612123565b5b600182019050919050565b600082905092915050565b60008190508160005260206000209050919050565b60006020601f8301049050919050565b600082821b905092915050565b6000600883026122077fffffffffffffffffffffffffffffffffffffffffffffffffffffffffffffffff826121ca565b61221186836121ca565b95508019841693508086168417925050509392505050565b6000819050919050565b600061224e61224961224484611b3b565b612229565b611b3b565b9050919050565b6000819050919050565b61226883612233565b61227c61227482612255565b8484546121d7565b825550505050565b600090565b612291612284565b61229c81848461225f565b505050565b5b818110156122c0576122b5600082612289565b6001810190506122a2565b5050565b601f821115612305576122d6816121a5565b6122df846121ba565b810160208510156122ee578190505b6123026122fa856121ba565b8301826122a1565b50505b505050565b600082821c905092915050565b60006123286000198460080261230a565b1980831691505092915050565b60006123418383612317565b9150826002028217905092915050565b61235b838361219a565b67ffffffffffffffff81111561237457612373611e9e565b5b61237e82546120bb565b6123898282856122c4565b6000601f8311600181146123b857600084156123a6578287013590505b6123b08582612335565b865550612418565b601f1984166123c6866121a5565b60005b828110156123ee578489013582556001820191506020850194506020810190506123c9565b8683101561240b5784890135612407601f891682612317565b8355505b6001600288020188555050505b50505050505050565b600081905092915050565b7f7b00000000000000000000000000000000000000000000000000000000000000600082015250565b6000612462600183612421565b915061246d8261242c565b600182019050919050565b7f226e616d65223a202245746865726c696e6b2023000000000000000000000000600082015250565b60006124ae601483612421565b91506124b982612478565b601482019050919050565b60006124cf82611a89565b6124d98185612421565b93506124e9818560208601611aa5565b80840191505092915050565b7f222c200000000000000000000000000000000000000000000000000000000000600082015250565b600061252b600383612421565b9150612536826124f5565b600382019050919050565b7f226465736372697074696f6e223a20225468697320636f6f6c2045746865726c60008201527f696e6b206c6f676f20697320616e2073766720637265617465642066726f6d2060208201527f6f6e2d636861696e206d657461646174617321222c2000000000000000000000604082015250565b60006125c3605683612421565b91506125ce82612541565b605682019050919050565b7f22696d616765223a202200000000000000000000000000000000000000000000600082015250565b600061260f600a83612421565b915061261a826125d9565b600a82019050919050565b7f22207d0000000000000000000000000000000000000000000000000000000000600082015250565b600061265b600383612421565b915061266682612625565b600382019050919050565b600061267c82612455565b9150612687826124a1565b915061269382856124c4565b915061269e8261251e565b91506126a9826125b6565b91506126b482612602565b91506126c082846124c4565b91506126cb8261264e565b91508190509392505050565b7f646174613a6170706c69636174696f6e2f6a736f6e3b6261736536342c000000600082015250565b600061270d601d83612421565b9150612718826126d7565b601d82019050919050565b600061272e82612700565b915061273a82846124c4565b915081905092915050565b600081519050919050565b600082825260208201905092915050565b600061276c82612745565b6127768185612750565b9350612786818560208601611aa5565b61278f81611acf565b840191505092915050565b60006080820190506127af6000830187611bd0565b6127bc6020830186611bd0565b6127c96040830185611c66565b81810360608301526127db8184612761565b905095945050505050565b6000815190506127f5816119fa565b92915050565b600060208284031215612811576128106119c4565b5b600061281f848285016127e6565b91505092915050565b7f4e487b7100000000000000000000000000000000000000000000000000000000600052601260045260246000fd5b7f3c7376672076657273696f6e3d22312e302220786d6c6e733d22687474703a2f60008201527f2f7777772e77332e6f72672f323030302f737667222077696474683d2234303060208201527f22206865696768743d22343030222076696577426f783d22302030203430302060408201527f34303022207072657365727665417370656374526174696f3d22784d6964594d60608201527f6964206d65657422207374796c653d226261636b67726f756e642d636f6c6f7260808201527f3a0000000000000000000000000000000000000000000000000000000000000060a082015250565b600061294b60a183612421565b915061295682612857565b60a182019050919050565b6000815461296e816120bb565b6129788186612421565b9450600182166000811461299357600181146129a8576129db565b60ff19831686528115158202860193506129db565b6129b1856121a5565b60005b838110156129d3578154818901526001820191506020810190506129b4565b838801955050505b50505092915050565b7f223e000000000000000000000000000000000000000000000000000000000000600082015250565b6000612a1a600283612421565b9150612a25826129e4565b600282019050919050565b7f3c67207472616e73666f726d3d227472616e736c61746528302e30303030303060008201527f2c3430302e30303030303029207363616c6528302e3130303030302c2d302e3160208201527f303030303029222066696c6c3d22000000000000000000000000000000000000604082015250565b6000612ab2604e83612421565b9150612abd82612a30565b604e82019050919050565b7f22207374726f6b653d226e6f6e65223e00000000000000000000000000000000600082015250565b6000612afe601083612421565b9150612b0982612ac8565b601082019050919050565b7f3c7061746820643d224d302032303030206c30202d323030302032303030203060008201527f203230303020302030203230303020302032303030202d323030302030202d3260208201527f30303020302030202d323030307a206d3232363520313830312063313534202d60408201527f323720313838202d333620333237202d383220323933202d393720363135202d60608201527f33303920383036202d35323920323239202d32363420333630202d353333203460808201527f3334202d383934203330202d313530203331202d3433372030202d353938202d60a08201527f3435202d323337202d313333202d343730202d323439202d363538202d33333560c08201527f202d353432202d393432202d383832202d31353733202d383833202d3233342060e08201527f30202d343139203331202d36313820313032202d313436203532202d323139206101008201527f3836202d33343220313631202d34313120323437202d36383720353930202d386101208201527f33302031303330202d31343520343435202d31303920393139203130302031336101408201527f33302037362031343920313336203234302032333120333535203134382031376101608201527f37203334302033333820353432203435322031363120393120343135203137386101808201527f203632362032313320313531203236203430312032362035343620317a222f3e6101a082015250565b6000612d3f6101c083612421565b9150612d4a82612b14565b6101c082019050919050565b7f3c7061746820643d224d31383430203334373320632d313435202d3135202d3360008201527f3531202d3734202d343935202d313432202d313832202d3837202d333232202d60208201527f313838202d343635202d333337202d323436202d323538202d333833202d353760408201527f39202d333937202d393335202d3136202d34313120313133202d37363220343060608201527f30202d3130383120313837202d32313020353132202d33393220383035202d3460808201527f353320323630202d353420353637202d3333203831372035352035303020313760a08201527f372038363520353934203938302031313230203232203130312033312033373460c08201527f20313620343832202d383720363033202d3531322031303737202d313132312060e08201527f31323438202d313438203431202d333739203630202d3534302034337a206d316101008201527f303130202d35303420633731202d333520313230202d31313220313230202d316101208201527f38362030202d3933202d38202d313034202d323538202d333536202d323535206101408201527f2d323536202d323936202d323837202d333831202d323837202d38312031202d6101608201527f313734203632202d32303020313333202d3136203431202d31332031333220356101808201527f20313735203137203431203434342034373820353033203531342036322033396101a08201527f203134332034322032313120377a206d2d3730302031302063313033202d31366101c08201527f20323234202d363120323238202d38332033202d3133202d3333202d3536202d6101e08201527f313139202d313432206c2d313234202d313234202d313132203020632d3133376102008201527f2030202d323231202d3138202d333331202d3731202d313433202d3639202d326102208201527f3530202d313838202d333130202d333437202d3234202d3632202d3236202d386102408201527f31202d3237202d323335206c2d32202d313638202d313233202d31323420632d6102608201527f3638202d3639202d313239202d313235202d313337202d313235202d313820306102808201527f202d3538203931202d383620313930202d333020313131202d333020333832206102a08201527f31203439322031323120343338203532322037343320393832203734372035326102c08201527f203020313234202d3420313630202d31307a206d373830202d363131206334306102e08201527f202d3836203538202d313633203731202d323934203338202d343137202d31386103008201527f38202d383037202d353732202d393838202d313633202d3737202d333933202d6103208201527f313132202d353730202d3837202d313431203231202d323539203633202d32356103408201527f39203934203020372035372036362031323620313332206c31323720313139206103608201527f31333120312063313134203120313431203520323037203238203232382037386103808201527f20333732203233352034333020343637203138203731203231203130322031366103a08201527f20313835202d34203535202d3920313130202d313320313232202d35203138206103c08201527f31362034342031323520313532203731203732203133352031333120313431206103e08201527f31333120362030203234202d3238203430202d36327a206d2d31313630202d356104008201527f363220633635202d3433203934202d3936203934202d3137342031202d3535206104208201527f2d34202d3735202d3236202d313132202d3338202d3634202d343834202d35306104408201527f35202d353330202d353234202d313033202d3433202d3233322036202d3238366104608201527f20313039202d3233203434202d323120313431203420313838203330203536206104808201527f34373820353035203532382035323820363020323920313631203231203231366104a08201527f202d31357a222f3e0000000000000000000000000000000000000000000000006104c082015250565b60006133506104c883612421565b915061335b82612d56565b6104c882019050919050565b7f3c2f673e00000000000000000000000000000000000000000000000000000000600082015250565b600061339d600483612421565b91506133a882613367565b600482019050919050565b7f3c2f7376673e0000000000000000000000000000000000000000000000000000600082015250565b60006133e9600683612421565b91506133f4826133b3565b600682019050919050565b600061340a8261293e565b91506134168285612961565b915061342182612a0d565b915061342c82612aa5565b91506134388284612961565b915061344382612af1565b915061344e82612d31565b915061345982613342565b915061346482613390565b915061346f826133dc565b91508190509392505050565b7f646174613a696d6167652f7376672b786d6c3b6261736536342c000000000000600082015250565b60006134b1601a83612421565b91506134bc8261347b565b601a82019050919050565b60006134d2826134a4565b91506134de82846124c4565b915081905092915050565b60006134f482611b3b565b91506134ff83611b3b565b925082820190508082111561351757613516612123565b5b92915050565b600061352882611b3b565b915061353383611b3b565b92508261354357613542612828565b5b828204905092915050565b600061355982611b3b565b915061356483611b3b565b925082820261357281611b3b565b9150828204841483151761358957613588612123565b5b5092915050565b60006040820190506135a56000830185611bd0565b6135b26020830184611c66565b939250505056fe4142434445464748494a4b4c4d4e4f505152535455565758595a6162636465666768696a6b6c6d6e6f707172737475767778797a303132333435363738392b2fa26469706673582212206f5dd232b136c0dbcd6bc6989ddb9f5e0d47bb38e49ecd3e64d7dea3a30f7edf64736f6c63430008140033",
  "linkReferences": {},
  "deployedLinkReferences": {}
}